{
  "_format": "hh-sol-artifact-1",
  "contractName": "AniNameMash",
  "sourceName": "contracts/AniNameMash.sol",
  "abi": [
    {
      "inputs": [],
      "stateMutability": "nonpayable",
      "type": "constructor"
    },
    {
      "anonymous": false,
      "inputs": [
        {
          "indexed": true,
          "internalType": "address",
          "name": "owner",
          "type": "address"
        },
        {
          "indexed": true,
          "internalType": "address",
          "name": "approved",
          "type": "address"
        },
        {
          "indexed": true,
          "internalType": "uint256",
          "name": "tokenId",
          "type": "uint256"
        }
      ],
      "name": "Approval",
      "type": "event"
    },
    {
      "anonymous": false,
      "inputs": [
        {
          "indexed": true,
          "internalType": "address",
          "name": "owner",
          "type": "address"
        },
        {
          "indexed": true,
          "internalType": "address",
          "name": "operator",
          "type": "address"
        },
        {
          "indexed": false,
          "internalType": "bool",
          "name": "approved",
          "type": "bool"
        }
      ],
      "name": "ApprovalForAll",
      "type": "event"
    },
    {
      "anonymous": false,
      "inputs": [
        {
          "indexed": false,
          "internalType": "address",
          "name": "sender",
          "type": "address"
        },
        {
          "indexed": false,
          "internalType": "uint256",
          "name": "tokenId",
          "type": "uint256"
        }
      ],
      "name": "NewAniMashMinted",
      "type": "event"
    },
    {
      "anonymous": false,
      "inputs": [
        {
          "indexed": true,
          "internalType": "address",
          "name": "from",
          "type": "address"
        },
        {
          "indexed": true,
          "internalType": "address",
          "name": "to",
          "type": "address"
        },
        {
          "indexed": true,
          "internalType": "uint256",
          "name": "tokenId",
          "type": "uint256"
        }
      ],
      "name": "Transfer",
      "type": "event"
    },
    {
      "inputs": [
        {
          "internalType": "address",
          "name": "to",
          "type": "address"
        },
        {
          "internalType": "uint256",
          "name": "tokenId",
          "type": "uint256"
        }
      ],
      "name": "approve",
      "outputs": [],
      "stateMutability": "nonpayable",
      "type": "function"
    },
    {
      "inputs": [
        {
          "internalType": "address",
          "name": "owner",
          "type": "address"
        }
      ],
      "name": "balanceOf",
      "outputs": [
        {
          "internalType": "uint256",
          "name": "",
          "type": "uint256"
        }
      ],
      "stateMutability": "view",
      "type": "function"
    },
    {
      "inputs": [
        {
          "internalType": "uint256",
          "name": "tokenId",
          "type": "uint256"
        }
      ],
      "name": "getApproved",
      "outputs": [
        {
          "internalType": "address",
          "name": "",
          "type": "address"
        }
      ],
      "stateMutability": "view",
      "type": "function"
    },
    {
      "inputs": [],
      "name": "getTotalMintCount",
      "outputs": [
        {
          "internalType": "uint256",
          "name": "",
          "type": "uint256"
        }
      ],
      "stateMutability": "view",
      "type": "function"
    },
    {
      "inputs": [
        {
          "internalType": "address",
          "name": "owner",
          "type": "address"
        },
        {
          "internalType": "address",
          "name": "operator",
          "type": "address"
        }
      ],
      "name": "isApprovedForAll",
      "outputs": [
        {
          "internalType": "bool",
          "name": "",
          "type": "bool"
        }
      ],
      "stateMutability": "view",
      "type": "function"
    },
    {
      "inputs": [],
      "name": "makeAnAniMashNFT",
      "outputs": [],
      "stateMutability": "nonpayable",
      "type": "function"
    },
    {
      "inputs": [],
      "name": "maxTokens",
      "outputs": [
        {
          "internalType": "uint256",
          "name": "",
          "type": "uint256"
        }
      ],
      "stateMutability": "view",
      "type": "function"
    },
    {
      "inputs": [],
      "name": "name",
      "outputs": [
        {
          "internalType": "string",
          "name": "",
          "type": "string"
        }
      ],
      "stateMutability": "view",
      "type": "function"
    },
    {
      "inputs": [
        {
          "internalType": "uint256",
          "name": "tokenId",
          "type": "uint256"
        }
      ],
      "name": "ownerOf",
      "outputs": [
        {
          "internalType": "address",
          "name": "",
          "type": "address"
        }
      ],
      "stateMutability": "view",
      "type": "function"
    },
    {
      "inputs": [
        {
          "internalType": "uint256",
          "name": "tokenId",
          "type": "uint256"
        }
      ],
      "name": "pickRandomColor",
      "outputs": [
        {
          "internalType": "string",
          "name": "",
          "type": "string"
        }
      ],
      "stateMutability": "view",
      "type": "function"
    },
    {
      "inputs": [
        {
          "internalType": "uint256",
          "name": "tokenId",
          "type": "uint256"
        }
      ],
      "name": "pickRandomFirstWord",
      "outputs": [
        {
          "internalType": "string",
          "name": "",
          "type": "string"
        }
      ],
      "stateMutability": "view",
      "type": "function"
    },
    {
      "inputs": [
        {
          "internalType": "uint256",
          "name": "tokenId",
          "type": "uint256"
        }
      ],
      "name": "pickRandomSecondWord",
      "outputs": [
        {
          "internalType": "string",
          "name": "",
          "type": "string"
        }
      ],
      "stateMutability": "view",
      "type": "function"
    },
    {
      "inputs": [
        {
          "internalType": "uint256",
          "name": "tokenId",
          "type": "uint256"
        }
      ],
      "name": "pickRandomThirdWord",
      "outputs": [
        {
          "internalType": "string",
          "name": "",
          "type": "string"
        }
      ],
      "stateMutability": "view",
      "type": "function"
    },
    {
      "inputs": [
        {
          "internalType": "address",
          "name": "from",
          "type": "address"
        },
        {
          "internalType": "address",
          "name": "to",
          "type": "address"
        },
        {
          "internalType": "uint256",
          "name": "tokenId",
          "type": "uint256"
        }
      ],
      "name": "safeTransferFrom",
      "outputs": [],
      "stateMutability": "nonpayable",
      "type": "function"
    },
    {
      "inputs": [
        {
          "internalType": "address",
          "name": "from",
          "type": "address"
        },
        {
          "internalType": "address",
          "name": "to",
          "type": "address"
        },
        {
          "internalType": "uint256",
          "name": "tokenId",
          "type": "uint256"
        },
        {
          "internalType": "bytes",
          "name": "_data",
          "type": "bytes"
        }
      ],
      "name": "safeTransferFrom",
      "outputs": [],
      "stateMutability": "nonpayable",
      "type": "function"
    },
    {
      "inputs": [
        {
          "internalType": "address",
          "name": "operator",
          "type": "address"
        },
        {
          "internalType": "bool",
          "name": "approved",
          "type": "bool"
        }
      ],
      "name": "setApprovalForAll",
      "outputs": [],
      "stateMutability": "nonpayable",
      "type": "function"
    },
    {
      "inputs": [
        {
          "internalType": "bytes4",
          "name": "interfaceId",
          "type": "bytes4"
        }
      ],
      "name": "supportsInterface",
      "outputs": [
        {
          "internalType": "bool",
          "name": "",
          "type": "bool"
        }
      ],
      "stateMutability": "view",
      "type": "function"
    },
    {
      "inputs": [],
      "name": "symbol",
      "outputs": [
        {
          "internalType": "string",
          "name": "",
          "type": "string"
        }
      ],
      "stateMutability": "view",
      "type": "function"
    },
    {
      "inputs": [
        {
          "internalType": "uint256",
          "name": "tokenId",
          "type": "uint256"
        }
      ],
      "name": "tokenURI",
      "outputs": [
        {
          "internalType": "string",
          "name": "",
          "type": "string"
        }
      ],
      "stateMutability": "view",
      "type": "function"
    },
    {
      "inputs": [
        {
          "internalType": "address",
          "name": "from",
          "type": "address"
        },
        {
          "internalType": "address",
          "name": "to",
          "type": "address"
        },
        {
          "internalType": "uint256",
          "name": "tokenId",
          "type": "uint256"
        }
      ],
      "name": "transferFrom",
      "outputs": [],
      "stateMutability": "nonpayable",
      "type": "function"
    }
  ],
  "bytecode": "0x6080604052603260085560405180610100016040528060d381526020016200521f60d39139600990805190602001906200003b929190620011dc565b50604051806080016040528060568152602001620052f260569139600a90805190602001906200006d929190620011dc565b5060405180610160016040528061012f8152602001620050f061012f9139600b9080519060200190620000a2929190620011dc565b506040518061028001604052806040518060400160405280600681526020017f4b696c6c7561000000000000000000000000000000000000000000000000000081525081526020016040518060400160405280600681526020017f4a6f73756b65000000000000000000000000000000000000000000000000000081525081526020016040518060400160405280600581526020017f4b6174737500000000000000000000000000000000000000000000000000000081525081526020016040518060400160405280600981526020017f4761626261676f6f6c000000000000000000000000000000000000000000000081525081526020016040518060400160405280600681526020017f4e617275746f000000000000000000000000000000000000000000000000000081525081526020016040518060400160405280600781526020017f4b7265756765720000000000000000000000000000000000000000000000000081525081526020016040518060400160405280600681526020017f536173756b65000000000000000000000000000000000000000000000000000081525081526020016040518060400160405280600581526020017f526f68616e00000000000000000000000000000000000000000000000000000081525081526020016040518060400160405280600581526020017f477569646f00000000000000000000000000000000000000000000000000000081525081526020016040518060400160405280600581526020017f4272756e6f00000000000000000000000000000000000000000000000000000081525081526020016040518060400160405280600381526020017f44696f000000000000000000000000000000000000000000000000000000000081525081526020016040518060400160405280600481526020017f57616e670000000000000000000000000000000000000000000000000000000081525081526020016040518060400160405280600681526020017f4b6f69636869000000000000000000000000000000000000000000000000000081525081526020016040518060400160405280600681526020017f4c656f72696f000000000000000000000000000000000000000000000000000081525081526020016040518060400160405280600881526020017f5368616c6e61726b00000000000000000000000000000000000000000000000081525081526020016040518060400160405280600681526020017f5361746f747a000000000000000000000000000000000000000000000000000081525081526020016040518060400160405280600581526020017f497a756b7500000000000000000000000000000000000000000000000000000081525081526020016040518060400160405280600481526020017f44656b750000000000000000000000000000000000000000000000000000000081525081526020016040518060400160405280600681526020017f4e657a756b6f000000000000000000000000000000000000000000000000000081525081526020016040518060400160405280600781526020017f5a656e6974737500000000000000000000000000000000000000000000000000815250815250600c9060146200055b9291906200126d565b506040518061028001604052806040518060400160405280600781526020017f5a6f6c6479636b0000000000000000000000000000000000000000000000000081525081526020016040518060400160405280600981526020017f56616c656e74696e65000000000000000000000000000000000000000000000081525081526020016040518060400160405280600581526020017f4b6172656e00000000000000000000000000000000000000000000000000000081525081526020016040518060400160405280600781526020017f557a756d616b690000000000000000000000000000000000000000000000000081525081526020016040518060400160405280600881526020017f44756d707374657200000000000000000000000000000000000000000000000081525081526020016040518060400160405280600681526020017f4a6f7461726f000000000000000000000000000000000000000000000000000081525081526020016040518060400160405280600681526020017f47696f726e6f000000000000000000000000000000000000000000000000000081525081526020016040518060400160405280600781526020017f4b6973686962650000000000000000000000000000000000000000000000000081525081526020016040518060400160405280600581526020017f4d6973746100000000000000000000000000000000000000000000000000000081525081526020016040518060400160405280600a81526020017f42756363656c6c6174690000000000000000000000000000000000000000000081525081526020016040518060400160405280600881526020017f546f6e706574747900000000000000000000000000000000000000000000000081525081526020016040518060400160405280600481526020017f466179650000000000000000000000000000000000000000000000000000000081525081526020016040518060400160405280600381526020017f52696e000000000000000000000000000000000000000000000000000000000081525081526020016040518060400160405280600581526020017f59756b696f00000000000000000000000000000000000000000000000000000081525081526020016040518060400160405280600781526020017f547375626173610000000000000000000000000000000000000000000000000081525081526020016040518060400160405280600781526020017f4a6f65737461720000000000000000000000000000000000000000000000000081525081526020016040518060400160405280600681526020017f556368696861000000000000000000000000000000000000000000000000000081525081526020016040518060400160405280600481526020017f4b756a6f0000000000000000000000000000000000000000000000000000000081525081526020016040518060400160405280600881526020017f47696f76616e6e6100000000000000000000000000000000000000000000000081525081526020016040518060400160405280600a81526020017f53706565647761676f6e00000000000000000000000000000000000000000000815250815250600d90601462000a149291906200126d565b506040518061026001604052806040518060400160405280600581526020017f4269736b7900000000000000000000000000000000000000000000000000000081525081526020016040518060400160405280600481526020017f466179650000000000000000000000000000000000000000000000000000000081525081526020016040518060400160405280600781526020017f417261726167690000000000000000000000000000000000000000000000000081525081526020016040518060400160405280600c81526020017f53656e6a6f75676168617261000000000000000000000000000000000000000081525081526020016040518060400160405280600781526020017f4b616b617368690000000000000000000000000000000000000000000000000081525081526020016040518060400160405280600781526020017f4a6f65737461720000000000000000000000000000000000000000000000000081525081526020016040518060400160405280600681526020017f556368696861000000000000000000000000000000000000000000000000000081525081526020016040518060400160405280600481526020017f4b756a6f0000000000000000000000000000000000000000000000000000000081525081526020016040518060400160405280600881526020017f47696f76616e6e6100000000000000000000000000000000000000000000000081525081526020016040518060400160405280600a81526020017f53706565647761676f6e0000000000000000000000000000000000000000000081525081526020016040518060400160405280600581526020017f4368756e6700000000000000000000000000000000000000000000000000000081525081526020016040518060400160405280600981526020017f506f6c6e6172656666000000000000000000000000000000000000000000000081525081526020016040518060400160405280600681526020017f4869726f7365000000000000000000000000000000000000000000000000000081525081526020016040518060400160405280600b81526020017f5061726164696e6967687400000000000000000000000000000000000000000081525081526020016040518060400160405280600881526020017f427573687769636b00000000000000000000000000000000000000000000000081525081526020016040518060400160405280600881526020017f576f6f647369646500000000000000000000000000000000000000000000000081525081526020016040518060400160405280600681526020017f4e657465726f000000000000000000000000000000000000000000000000000081525081526020016040518060400160405280600881526020017f4d69646f7269796100000000000000000000000000000000000000000000000081525081526020016040518060400160405280600781526020017f54616e6a69726f00000000000000000000000000000000000000000000000000815250815250600e90601362000e92929190620012d4565b506040518060c001604052806040518060400160405280600381526020017f726564000000000000000000000000000000000000000000000000000000000081525081526020016040518060400160405280600781526020017f233038433241380000000000000000000000000000000000000000000000000081525081526020016040518060400160405280600581526020017f626c61636b00000000000000000000000000000000000000000000000000000081525081526020016040518060400160405280600681526020017f79656c6c6f77000000000000000000000000000000000000000000000000000081525081526020016040518060400160405280600481526020017f626c75650000000000000000000000000000000000000000000000000000000081525081526020016040518060400160405280600581526020017f677265656e000000000000000000000000000000000000000000000000000000815250815250600f906006620010109291906200133b565b503480156200101e57600080fd5b506040518060400160405280601381526020017f416e696d65204e616d65204d617368204e4654000000000000000000000000008152506040518060400160405280600681526020017f414e494d534800000000000000000000000000000000000000000000000000008152508160009080519060200190620010a3929190620011dc565b508060019080519060200190620010bc929190620011dc565b5050506200110a6040518060400160405280601e81526020017f54686973206973206d79204e465420636f6e74726163742e20576f61682100008152506200111060201b620014431760201c565b6200155c565b620011b08160405160240162001127919062001470565b6040516020818303038152906040527f41304fac000000000000000000000000000000000000000000000000000000007bffffffffffffffffffffffffffffffffffffffffffffffffffffffff19166020820180517bffffffffffffffffffffffffffffffffffffffffffffffffffffffff8381831617835250505050620011b360201b60201c565b50565b60008151905060006a636f6e736f6c652e6c6f679050602083016000808483855afa5050505050565b828054620011ea90620014e6565b90600052602060002090601f0160209004810192826200120e57600085556200125a565b82601f106200122957805160ff19168380011785556200125a565b828001600101855582156200125a579182015b82811115620012595782518255916020019190600101906200123c565b5b509050620012699190620013a2565b5090565b828054828255906000526020600020908101928215620012c1579160200282015b82811115620012c0578251829080519060200190620012af929190620011dc565b50916020019190600101906200128e565b5b509050620012d09190620013c1565b5090565b82805482825590600052602060002090810192821562001328579160200282015b828111156200132757825182908051906020019062001316929190620011dc565b5091602001919060010190620012f5565b5b509050620013379190620013c1565b5090565b8280548282559060005260206000209081019282156200138f579160200282015b828111156200138e5782518290805190602001906200137d929190620011dc565b50916020019190600101906200135c565b5b5090506200139e9190620013c1565b5090565b5b80821115620013bd576000816000905550600101620013a3565b5090565b5b80821115620013e55760008181620013db9190620013e9565b50600101620013c2565b5090565b508054620013f790620014e6565b6000825580601f106200140b57506200142c565b601f0160209004906000526020600020908101906200142b9190620013a2565b5b50565b60006200143c8262001494565b6200144881856200149f565b93506200145a818560208601620014b0565b62001465816200154b565b840191505092915050565b600060208201905081810360008301526200148c81846200142f565b905092915050565b600081519050919050565b600082825260208201905092915050565b60005b83811015620014d0578082015181840152602081019050620014b3565b83811115620014e0576000848401525b50505050565b60006002820490506001821680620014ff57607f821691505b602082108114156200151657620015156200151c565b5b50919050565b7f4e487b7100000000000000000000000000000000000000000000000000000000600052602260045260246000fd5b6000601f19601f8301169050919050565b613b84806200156c6000396000f3fe608060405234801561001057600080fd5b506004361061012c5760003560e01c806395d89b41116100ad578063b88d4fde11610071578063b88d4fde14610355578063c575757a14610371578063c87b56dd146103a1578063e8315742146103d1578063e985e9c5146103ef5761012c565b806395d89b41146102c35780639b8ab691146102e15780639d6053f4146102ff578063a22cb46514610309578063b187301f146103255761012c565b80632de38d68116100f45780632de38d68146101e757806342842e0e14610217578063514dc8c6146102335780636352211e1461026357806370a08231146102935761012c565b806301ffc9a71461013157806306fdde0314610161578063081812fc1461017f578063095ea7b3146101af57806323b872dd146101cb575b600080fd5b61014b600480360381019061014691906126d6565b61041f565b60405161015891906133da565b60405180910390f35b610169610501565b60405161017691906133f5565b60405180910390f35b61019960048036038101906101949190612728565b610593565b6040516101a6919061334a565b60405180910390f35b6101c960048036038101906101c4919061269a565b610618565b005b6101e560048036038101906101e09190612594565b610730565b005b61020160048036038101906101fc9190612728565b610790565b60405161020e91906133f5565b60405180910390f35b610231600480360381019061022c9190612594565b6108ae565b005b61024d60048036038101906102489190612728565b6108ce565b60405161025a91906133f5565b60405180910390f35b61027d60048036038101906102789190612728565b6109ec565b60405161028a919061334a565b60405180910390f35b6102ad60048036038101906102a8919061252f565b610a9e565b6040516102ba9190613675565b60405180910390f35b6102cb610b56565b6040516102d891906133f5565b60405180910390f35b6102e9610be8565b6040516102f69190613675565b60405180910390f35b610307610bf9565b005b610323600480360381019061031e919061265e565b610e38565b005b61033f600480360381019061033a9190612728565b610fb9565b60405161034c91906133f5565b60405180910390f35b61036f600480360381019061036a91906125e3565b6110d7565b005b61038b60048036038101906103869190612728565b611139565b60405161039891906133f5565b60405180910390f35b6103bb60048036038101906103b69190612728565b611257565b6040516103c891906133f5565b60405180910390f35b6103d96113a9565b6040516103e69190613675565b60405180910390f35b61040960048036038101906104049190612558565b6113af565b60405161041691906133da565b60405180910390f35b60007f80ac58cd000000000000000000000000000000000000000000000000000000007bffffffffffffffffffffffffffffffffffffffffffffffffffffffff1916827bffffffffffffffffffffffffffffffffffffffffffffffffffffffff191614806104ea57507f5b5e139f000000000000000000000000000000000000000000000000000000007bffffffffffffffffffffffffffffffffffffffffffffffffffffffff1916827bffffffffffffffffffffffffffffffffffffffffffffffffffffffff1916145b806104fa57506104f9826114dc565b5b9050919050565b60606000805461051090613914565b80601f016020809104026020016040519081016040528092919081815260200182805461053c90613914565b80156105895780601f1061055e57610100808354040283529160200191610589565b820191906000526020600020905b81548152906001019060200180831161056c57829003601f168201915b5050505050905090565b600061059e82611546565b6105dd576040517f08c379a00000000000000000000000000000000000000000000000000000000081526004016105d4906135d5565b60405180910390fd5b6004600083815260200190815260200160002060009054906101000a900473ffffffffffffffffffffffffffffffffffffffff169050919050565b6000610623826109ec565b90508073ffffffffffffffffffffffffffffffffffffffff168373ffffffffffffffffffffffffffffffffffffffff161415610694576040517f08c379a000000000000000000000000000000000000000000000000000000000815260040161068b90613635565b60405180910390fd5b8073ffffffffffffffffffffffffffffffffffffffff166106b36115b2565b73ffffffffffffffffffffffffffffffffffffffff1614806106e257506106e1816106dc6115b2565b6113af565b5b610721576040517f08c379a000000000000000000000000000000000000000000000000000000000815260040161071890613515565b60405180910390fd5b61072b83836115ba565b505050565b61074161073b6115b2565b82611673565b610780576040517f08c379a000000000000000000000000000000000000000000000000000000000815260040161077790613655565b60405180910390fd5b61078b838383611751565b505050565b606060006107c46107a0846119ad565b6040516020016107b091906132e4565b604051602081830303815290604052611b5a565b9050600c80549050816107d7919061398f565b9050600c8181548110610813577f4e487b7100000000000000000000000000000000000000000000000000000000600052603260045260246000fd5b90600052602060002001805461082890613914565b80601f016020809104026020016040519081016040528092919081815260200182805461085490613914565b80156108a15780601f10610876576101008083540402835291602001916108a1565b820191906000526020600020905b81548152906001019060200180831161088457829003601f168201915b5050505050915050919050565b6108c9838383604051806020016040528060008152506110d7565b505050565b606060006109026108de846119ad565b6040516020016108ee9190613328565b604051602081830303815290604052611b5a565b9050600f8054905081610915919061398f565b9050600f8181548110610951577f4e487b7100000000000000000000000000000000000000000000000000000000600052603260045260246000fd5b90600052602060002001805461096690613914565b80601f016020809104026020016040519081016040528092919081815260200182805461099290613914565b80156109df5780601f106109b4576101008083540402835291602001916109df565b820191906000526020600020905b8154815290600101906020018083116109c257829003601f168201915b5050505050915050919050565b6000806002600084815260200190815260200160002060009054906101000a900473ffffffffffffffffffffffffffffffffffffffff169050600073ffffffffffffffffffffffffffffffffffffffff168173ffffffffffffffffffffffffffffffffffffffff161415610a95576040517f08c379a0000000000000000000000000000000000000000000000000000000008152600401610a8c90613555565b60405180910390fd5b80915050919050565b60008073ffffffffffffffffffffffffffffffffffffffff168273ffffffffffffffffffffffffffffffffffffffff161415610b0f576040517f08c379a0000000000000000000000000000000000000000000000000000000008152600401610b0690613535565b60405180910390fd5b600360008373ffffffffffffffffffffffffffffffffffffffff1673ffffffffffffffffffffffffffffffffffffffff168152602001908152602001600020549050919050565b606060018054610b6590613914565b80601f0160208091040260200160405190810160405280929190818152602001828054610b9190613914565b8015610bde5780601f10610bb357610100808354040283529160200191610bde565b820191906000526020600020905b815481529060010190602001808311610bc157829003601f168201915b5050505050905090565b6000610bf46007611b8d565b905090565b6000610c056007611b8d565b9050600854811115610c4c576040517f08c379a0000000000000000000000000000000000000000000000000000000008152600401610c4390613495565b60405180910390fd5b6000610c5782610790565b90506000610c6483610fb9565b90506000610c7184611139565b90506000838383604051602001610c8a939291906131e1565b60405160208183030381529060405290506000610ca6866108ce565b90506000600982600a85604051602001610cc39493929190613212565b60405160208183030381529060405290506000610d0884610ce384611b9b565b604051602001610cf492919061329f565b604051602081830303815290604052611b9b565b9050600081604051602001610d1d9190613306565b6040516020818303038152906040529050610d6c6040518060400160405280601581526020017f0a2d2d2d2d2d2d2d2d2d2d2d2d2d2d2d2d2d2d2d2d0000000000000000000000815250611443565b610d7581611443565b610db36040518060400160405280601581526020017f2d2d2d2d2d2d2d2d2d2d2d2d2d2d2d2d2d2d2d2d0a0000000000000000000000815250611443565b610dbd338a611d59565b610dc78982611d77565b610dd16007611deb565b610df4604051806060016040528060258152602001613aea602591398a33611e01565b7fae428dff96686c8876a452370362daaebf05dba51ef73d5be9a57b38c3a63981338a604051610e259291906133b1565b60405180910390a1505050505050505050565b610e406115b2565b73ffffffffffffffffffffffffffffffffffffffff168273ffffffffffffffffffffffffffffffffffffffff161415610eae576040517f08c379a0000000000000000000000000000000000000000000000000000000008152600401610ea5906134d5565b60405180910390fd5b8060056000610ebb6115b2565b73ffffffffffffffffffffffffffffffffffffffff1673ffffffffffffffffffffffffffffffffffffffff16815260200190815260200160002060008473ffffffffffffffffffffffffffffffffffffffff1673ffffffffffffffffffffffffffffffffffffffff16815260200190815260200160002060006101000a81548160ff0219169083151502179055508173ffffffffffffffffffffffffffffffffffffffff16610f686115b2565b73ffffffffffffffffffffffffffffffffffffffff167f17307eab39ab6107e8899845ad3d59bd9653f200f220920489ca2b5937696c3183604051610fad91906133da565b60405180910390a35050565b60606000610fed610fc9846119ad565b604051602001610fd9919061327d565b604051602081830303815290604052611b5a565b9050600d8054905081611000919061398f565b9050600d818154811061103c577f4e487b7100000000000000000000000000000000000000000000000000000000600052603260045260246000fd5b90600052602060002001805461105190613914565b80601f016020809104026020016040519081016040528092919081815260200182805461107d90613914565b80156110ca5780601f1061109f576101008083540402835291602001916110ca565b820191906000526020600020905b8154815290600101906020018083116110ad57829003601f168201915b5050505050915050919050565b6110e86110e26115b2565b83611673565b611127576040517f08c379a000000000000000000000000000000000000000000000000000000000815260040161111e90613655565b60405180910390fd5b61113384848484611ea0565b50505050565b6060600061116d611149846119ad565b604051602001611159919061325b565b604051602081830303815290604052611b5a565b9050600e8054905081611180919061398f565b9050600e81815481106111bc577f4e487b7100000000000000000000000000000000000000000000000000000000600052603260045260246000fd5b9060005260206000200180546111d190613914565b80601f01602080910402602001604051908101604052809291908181526020018280546111fd90613914565b801561124a5780601f1061121f5761010080835404028352916020019161124a565b820191906000526020600020905b81548152906001019060200180831161122d57829003601f168201915b5050505050915050919050565b606061126282611546565b6112a1576040517f08c379a0000000000000000000000000000000000000000000000000000000008152600401611298906135b5565b60405180910390fd5b60006006600084815260200190815260200160002080546112c190613914565b80601f01602080910402602001604051908101604052809291908181526020018280546112ed90613914565b801561133a5780601f1061130f5761010080835404028352916020019161133a565b820191906000526020600020905b81548152906001019060200180831161131d57829003601f168201915b50505050509050600061134b611efc565b90506000815114156113615781925050506113a4565b60008251111561139657808260405160200161137e9291906131bd565b604051602081830303815290604052925050506113a4565b61139f84611f13565b925050505b919050565b60085481565b6000600560008473ffffffffffffffffffffffffffffffffffffffff1673ffffffffffffffffffffffffffffffffffffffff16815260200190815260200160002060008373ffffffffffffffffffffffffffffffffffffffff1673ffffffffffffffffffffffffffffffffffffffff16815260200190815260200160002060009054906101000a900460ff16905092915050565b6114d98160405160240161145791906133f5565b6040516020818303038152906040527f41304fac000000000000000000000000000000000000000000000000000000007bffffffffffffffffffffffffffffffffffffffffffffffffffffffff19166020820180517bffffffffffffffffffffffffffffffffffffffffffffffffffffffff8381831617835250505050611fba565b50565b60007f01ffc9a7000000000000000000000000000000000000000000000000000000007bffffffffffffffffffffffffffffffffffffffffffffffffffffffff1916827bffffffffffffffffffffffffffffffffffffffffffffffffffffffff1916149050919050565b60008073ffffffffffffffffffffffffffffffffffffffff166002600084815260200190815260200160002060009054906101000a900473ffffffffffffffffffffffffffffffffffffffff1673ffffffffffffffffffffffffffffffffffffffff1614159050919050565b600033905090565b816004600083815260200190815260200160002060006101000a81548173ffffffffffffffffffffffffffffffffffffffff021916908373ffffffffffffffffffffffffffffffffffffffff160217905550808273ffffffffffffffffffffffffffffffffffffffff1661162d836109ec565b73ffffffffffffffffffffffffffffffffffffffff167f8c5be1e5ebec7d5bd14f71427d1e84f3dd0314c0f7b2291e5b200ac8c7c3b92560405160405180910390a45050565b600061167e82611546565b6116bd576040517f08c379a00000000000000000000000000000000000000000000000000000000081526004016116b4906134f5565b60405180910390fd5b60006116c8836109ec565b90508073ffffffffffffffffffffffffffffffffffffffff168473ffffffffffffffffffffffffffffffffffffffff16148061173757508373ffffffffffffffffffffffffffffffffffffffff1661171f84610593565b73ffffffffffffffffffffffffffffffffffffffff16145b80611748575061174781856113af565b5b91505092915050565b8273ffffffffffffffffffffffffffffffffffffffff16611771826109ec565b73ffffffffffffffffffffffffffffffffffffffff16146117c7576040517f08c379a00000000000000000000000000000000000000000000000000000000081526004016117be906135f5565b60405180910390fd5b600073ffffffffffffffffffffffffffffffffffffffff168273ffffffffffffffffffffffffffffffffffffffff161415611837576040517f08c379a000000000000000000000000000000000000000000000000000000000815260040161182e906134b5565b60405180910390fd5b611842838383611fe3565b61184d6000826115ba565b6001600360008573ffffffffffffffffffffffffffffffffffffffff1673ffffffffffffffffffffffffffffffffffffffff168152602001908152602001600020600082825461189d919061382a565b925050819055506001600360008473ffffffffffffffffffffffffffffffffffffffff1673ffffffffffffffffffffffffffffffffffffffff16815260200190815260200160002060008282546118f49190613749565b92505081905550816002600083815260200190815260200160002060006101000a81548173ffffffffffffffffffffffffffffffffffffffff021916908373ffffffffffffffffffffffffffffffffffffffff160217905550808273ffffffffffffffffffffffffffffffffffffffff168473ffffffffffffffffffffffffffffffffffffffff167fddf252ad1be2c89b69c2b068fc378daa952ba7f163c4a11628f55a4df523b3ef60405160405180910390a4505050565b606060008214156119f5576040518060400160405280600181526020017f30000000000000000000000000000000000000000000000000000000000000008152509050611b55565b600082905060005b60008214611a27578080611a1090613946565b915050600a82611a20919061379f565b91506119fd565b60008167ffffffffffffffff811115611a69577f4e487b7100000000000000000000000000000000000000000000000000000000600052604160045260246000fd5b6040519080825280601f01601f191660200182016040528015611a9b5781602001600182028036833780820191505090505b5090505b60008514611b4e57600182611ab4919061382a565b9150600a85611ac3919061398f565b6030611acf9190613749565b60f81b818381518110611b0b577f4e487b7100000000000000000000000000000000000000000000000000000000600052603260045260246000fd5b60200101907effffffffffffffffffffffffffffffffffffffffffffffffffffffffffffff1916908160001a905350600a85611b47919061379f565b9450611a9f565b8093505050505b919050565b600081604051602001611b6d91906131a6565b6040516020818303038152906040528051906020012060001c9050919050565b600081600001549050919050565b60606000825190506000811415611bc45760405180602001604052806000815250915050611d54565b60006003600283611bd59190613749565b611bdf919061379f565b6004611beb91906137d0565b90506000602082611bfc9190613749565b67ffffffffffffffff811115611c3b577f4e487b7100000000000000000000000000000000000000000000000000000000600052604160045260246000fd5b6040519080825280601f01601f191660200182016040528015611c6d5781602001600182028036833780820191505090505b5090506000604051806060016040528060408152602001613b0f604091399050600181016020830160005b86811015611d115760038101905062ffffff818a015116603f8160121c168401518060081b905060ff603f83600c1c1686015116810190508060081b905060ff603f8360061c1686015116810190508060081b905060ff603f831686015116810190508060e01b90508084526004840193505050611c98565b506003860660018114611d2b5760028114611d3b57611d46565b613d3d60f01b6002830352611d46565b603d60f81b60018303525b508484525050819450505050505b919050565b611d73828260405180602001604052806000815250611fe8565b5050565b611d8082611546565b611dbf576040517f08c379a0000000000000000000000000000000000000000000000000000000008152600401611db690613575565b60405180910390fd5b80600660008481526020019081526020016000209080519060200190611de69291906123bb565b505050565b6001816000016000828254019250508190555050565b611e9b838383604051602401611e1993929190613417565b6040516020818303038152906040527fe3849f79000000000000000000000000000000000000000000000000000000007bffffffffffffffffffffffffffffffffffffffffffffffffffffffff19166020820180517bffffffffffffffffffffffffffffffffffffffffffffffffffffffff8381831617835250505050611fba565b505050565b611eab848484611751565b611eb784848484612043565b611ef6576040517f08c379a0000000000000000000000000000000000000000000000000000000008152600401611eed90613455565b60405180910390fd5b50505050565b606060405180602001604052806000815250905090565b6060611f1e82611546565b611f5d576040517f08c379a0000000000000000000000000000000000000000000000000000000008152600401611f5490613615565b60405180910390fd5b6000611f67611efc565b90506000815111611f875760405180602001604052806000815250611fb2565b80611f91846119ad565b604051602001611fa29291906131bd565b6040516020818303038152906040525b915050919050565b60008151905060006a636f6e736f6c652e6c6f679050602083016000808483855afa5050505050565b505050565b611ff283836121da565b611fff6000848484612043565b61203e576040517f08c379a000000000000000000000000000000000000000000000000000000000815260040161203590613455565b60405180910390fd5b505050565b60006120648473ffffffffffffffffffffffffffffffffffffffff166123a8565b156121cd578373ffffffffffffffffffffffffffffffffffffffff1663150b7a0261208d6115b2565b8786866040518563ffffffff1660e01b81526004016120af9493929190613365565b602060405180830381600087803b1580156120c957600080fd5b505af19250505080156120fa57506040513d601f19601f820116820180604052508101906120f791906126ff565b60015b61217d573d806000811461212a576040519150601f19603f3d011682016040523d82523d6000602084013e61212f565b606091505b50600081511415612175576040517f08c379a000000000000000000000000000000000000000000000000000000000815260040161216c90613455565b60405180910390fd5b805181602001fd5b63150b7a0260e01b7bffffffffffffffffffffffffffffffffffffffffffffffffffffffff1916817bffffffffffffffffffffffffffffffffffffffffffffffffffffffff1916149150506121d2565b600190505b949350505050565b600073ffffffffffffffffffffffffffffffffffffffff168273ffffffffffffffffffffffffffffffffffffffff16141561224a576040517f08c379a000000000000000000000000000000000000000000000000000000000815260040161224190613595565b60405180910390fd5b61225381611546565b15612293576040517f08c379a000000000000000000000000000000000000000000000000000000000815260040161228a90613475565b60405180910390fd5b61229f60008383611fe3565b6001600360008473ffffffffffffffffffffffffffffffffffffffff1673ffffffffffffffffffffffffffffffffffffffff16815260200190815260200160002060008282546122ef9190613749565b92505081905550816002600083815260200190815260200160002060006101000a81548173ffffffffffffffffffffffffffffffffffffffff021916908373ffffffffffffffffffffffffffffffffffffffff160217905550808273ffffffffffffffffffffffffffffffffffffffff16600073ffffffffffffffffffffffffffffffffffffffff167fddf252ad1be2c89b69c2b068fc378daa952ba7f163c4a11628f55a4df523b3ef60405160405180910390a45050565b600080823b905060008111915050919050565b8280546123c790613914565b90600052602060002090601f0160209004810192826123e95760008555612430565b82601f1061240257805160ff1916838001178555612430565b82800160010185558215612430579182015b8281111561242f578251825591602001919060010190612414565b5b50905061243d9190612441565b5090565b5b8082111561245a576000816000905550600101612442565b5090565b600061247161246c846136c1565b613690565b90508281526020810184848401111561248957600080fd5b6124948482856138d2565b509392505050565b6000813590506124ab81613a8d565b92915050565b6000813590506124c081613aa4565b92915050565b6000813590506124d581613abb565b92915050565b6000815190506124ea81613abb565b92915050565b600082601f83011261250157600080fd5b813561251184826020860161245e565b91505092915050565b60008135905061252981613ad2565b92915050565b60006020828403121561254157600080fd5b600061254f8482850161249c565b91505092915050565b6000806040838503121561256b57600080fd5b60006125798582860161249c565b925050602061258a8582860161249c565b9150509250929050565b6000806000606084860312156125a957600080fd5b60006125b78682870161249c565b93505060206125c88682870161249c565b92505060406125d98682870161251a565b9150509250925092565b600080600080608085870312156125f957600080fd5b60006126078782880161249c565b94505060206126188782880161249c565b93505060406126298782880161251a565b925050606085013567ffffffffffffffff81111561264657600080fd5b612652878288016124f0565b91505092959194509250565b6000806040838503121561267157600080fd5b600061267f8582860161249c565b9250506020612690858286016124b1565b9150509250929050565b600080604083850312156126ad57600080fd5b60006126bb8582860161249c565b92505060206126cc8582860161251a565b9150509250929050565b6000602082840312156126e857600080fd5b60006126f6848285016124c6565b91505092915050565b60006020828403121561271157600080fd5b600061271f848285016124db565b91505092915050565b60006020828403121561273a57600080fd5b60006127488482850161251a565b91505092915050565b61275a8161385e565b82525050565b61276981613870565b82525050565b600061277a82613706565b612784818561371c565b93506127948185602086016138e1565b61279d81613a7c565b840191505092915050565b60006127b382613711565b6127bd818561372d565b93506127cd8185602086016138e1565b6127d681613a7c565b840191505092915050565b60006127ec82613711565b6127f6818561373e565b93506128068185602086016138e1565b80840191505092915050565b6000815461281f81613914565b612829818661373e565b94506001821660008114612844576001811461285557612888565b60ff19831686528186019350612888565b61285e856136f1565b60005b8381101561288057815481890152600182019150602081019050612861565b838801955050505b50505092915050565b600061289e60328361372d565b91507f4552433732313a207472616e7366657220746f206e6f6e20455243373231526560008301527f63656976657220696d706c656d656e74657200000000000000000000000000006020830152604082019050919050565b6000612904601c8361372d565b91507f4552433732313a20746f6b656e20616c7265616479206d696e746564000000006000830152602082019050919050565b6000612944600a8361373e565b91507f54484952445f574f5244000000000000000000000000000000000000000000006000830152600a82019050919050565b600061298460388361372d565b91507f536f7272792c2062757420776527766520616c7265616479206d696e7465642060008301527f746865206d6178206e756d626572206f6620746f6b656e7300000000000000006020830152604082019050919050565b60006129ea60248361372d565b91507f4552433732313a207472616e7366657220746f20746865207a65726f2061646460008301527f72657373000000000000000000000000000000000000000000000000000000006020830152604082019050919050565b6000612a5060198361372d565b91507f4552433732313a20617070726f766520746f2063616c6c6572000000000000006000830152602082019050919050565b6000612a90600b8361373e565b91507f5345434f4e445f574f52440000000000000000000000000000000000000000006000830152600b82019050919050565b6000612ad0602c8361372d565b91507f4552433732313a206f70657261746f7220717565727920666f72206e6f6e657860008301527f697374656e7420746f6b656e00000000000000000000000000000000000000006020830152604082019050919050565b6000612b36600d8361373e565b91507f3c2f746578743e3c2f7376673e000000000000000000000000000000000000006000830152600d82019050919050565b6000612b7660388361372d565b91507f4552433732313a20617070726f76652063616c6c6572206973206e6f74206f7760008301527f6e6572206e6f7220617070726f76656420666f7220616c6c00000000000000006020830152604082019050919050565b6000612bdc602a8361372d565b91507f4552433732313a2062616c616e636520717565727920666f7220746865207a6560008301527f726f2061646472657373000000000000000000000000000000000000000000006020830152604082019050919050565b6000612c4260298361372d565b91507f4552433732313a206f776e657220717565727920666f72206e6f6e657869737460008301527f656e7420746f6b656e00000000000000000000000000000000000000000000006020830152604082019050919050565b6000612ca8602e8361372d565b91507f45524337323155524953746f726167653a2055524920736574206f66206e6f6e60008301527f6578697374656e7420746f6b656e0000000000000000000000000000000000006020830152604082019050919050565b6000612d0e60028361373e565b91507f227d0000000000000000000000000000000000000000000000000000000000006000830152600282019050919050565b6000612d4e60208361372d565b91507f4552433732313a206d696e7420746f20746865207a65726f20616464726573736000830152602082019050919050565b6000612d8e60318361372d565b91507f45524337323155524953746f726167653a2055524920717565727920666f722060008301527f6e6f6e6578697374656e7420746f6b656e0000000000000000000000000000006020830152604082019050919050565b6000612df4602c8361372d565b91507f4552433732313a20617070726f76656420717565727920666f72206e6f6e657860008301527f697374656e7420746f6b656e00000000000000000000000000000000000000006020830152604082019050919050565b6000612e5a60298361372d565b91507f4552433732313a207472616e73666572206f6620746f6b656e2074686174206960008301527f73206e6f74206f776e00000000000000000000000000000000000000000000006020830152604082019050919050565b6000612ec0602f8361372d565b91507f4552433732314d657461646174613a2055524920717565727920666f72206e6f60008301527f6e6578697374656e7420746f6b656e00000000000000000000000000000000006020830152604082019050919050565b6000612f26600a8361373e565b91507f7b226e616d65223a2022000000000000000000000000000000000000000000006000830152600a82019050919050565b6000612f6660218361372d565b91507f4552433732313a20617070726f76616c20746f2063757272656e74206f776e6560008301527f72000000000000000000000000000000000000000000000000000000000000006020830152604082019050919050565b6000612fcc600a8361373e565b91507f46495253545f574f5244000000000000000000000000000000000000000000006000830152600a82019050919050565b600061300c601d8361373e565b91507f646174613a6170706c69636174696f6e2f6a736f6e3b6261736536342c0000006000830152601d82019050919050565b600061304c60628361373e565b91507f222c20226465736372697074696f6e223a2022566172696f757320616e696d6560008301527f20636861726163746572206e616d6573206d61736865642075702e222c20226960208301527f6d616765223a2022646174613a696d6167652f7376672b786d6c3b626173653660408301527f342c0000000000000000000000000000000000000000000000000000000000006060830152606282019050919050565b60006130fe60318361372d565b91507f4552433732313a207472616e736665722063616c6c6572206973206e6f74206f60008301527f776e6572206e6f7220617070726f7665640000000000000000000000000000006020830152604082019050919050565b600061316460058361373e565b91507f434f4c4f520000000000000000000000000000000000000000000000000000006000830152600582019050919050565b6131a0816138c8565b82525050565b60006131b282846127e1565b915081905092915050565b60006131c982856127e1565b91506131d582846127e1565b91508190509392505050565b60006131ed82866127e1565b91506131f982856127e1565b915061320582846127e1565b9150819050949350505050565b600061321e8287612812565b915061322a82866127e1565b91506132368285612812565b915061324282846127e1565b915061324d82612b29565b915081905095945050505050565b600061326682612937565b915061327282846127e1565b915081905092915050565b600061328882612a83565b915061329482846127e1565b915081905092915050565b60006132aa82612f19565b91506132b682856127e1565b91506132c18261303f565b91506132cd82846127e1565b91506132d882612d01565b91508190509392505050565b60006132ef82612fbf565b91506132fb82846127e1565b915081905092915050565b600061331182612fff565b915061331d82846127e1565b915081905092915050565b600061333382613157565b915061333f82846127e1565b915081905092915050565b600060208201905061335f6000830184612751565b92915050565b600060808201905061337a6000830187612751565b6133876020830186612751565b6133946040830185613197565b81810360608301526133a6818461276f565b905095945050505050565b60006040820190506133c66000830185612751565b6133d36020830184613197565b9392505050565b60006020820190506133ef6000830184612760565b92915050565b6000602082019050818103600083015261340f81846127a8565b905092915050565b6000606082019050818103600083015261343181866127a8565b90506134406020830185613197565b61344d6040830184612751565b949350505050565b6000602082019050818103600083015261346e81612891565b9050919050565b6000602082019050818103600083015261348e816128f7565b9050919050565b600060208201905081810360008301526134ae81612977565b9050919050565b600060208201905081810360008301526134ce816129dd565b9050919050565b600060208201905081810360008301526134ee81612a43565b9050919050565b6000602082019050818103600083015261350e81612ac3565b9050919050565b6000602082019050818103600083015261352e81612b69565b9050919050565b6000602082019050818103600083015261354e81612bcf565b9050919050565b6000602082019050818103600083015261356e81612c35565b9050919050565b6000602082019050818103600083015261358e81612c9b565b9050919050565b600060208201905081810360008301526135ae81612d41565b9050919050565b600060208201905081810360008301526135ce81612d81565b9050919050565b600060208201905081810360008301526135ee81612de7565b9050919050565b6000602082019050818103600083015261360e81612e4d565b9050919050565b6000602082019050818103600083015261362e81612eb3565b9050919050565b6000602082019050818103600083015261364e81612f59565b9050919050565b6000602082019050818103600083015261366e816130f1565b9050919050565b600060208201905061368a6000830184613197565b92915050565b6000604051905081810181811067ffffffffffffffff821117156136b7576136b6613a4d565b5b8060405250919050565b600067ffffffffffffffff8211156136dc576136db613a4d565b5b601f19601f8301169050602081019050919050565b60008190508160005260206000209050919050565b600081519050919050565b600081519050919050565b600082825260208201905092915050565b600082825260208201905092915050565b600081905092915050565b6000613754826138c8565b915061375f836138c8565b9250827fffffffffffffffffffffffffffffffffffffffffffffffffffffffffffffffff03821115613794576137936139c0565b5b828201905092915050565b60006137aa826138c8565b91506137b5836138c8565b9250826137c5576137c46139ef565b5b828204905092915050565b60006137db826138c8565b91506137e6836138c8565b9250817fffffffffffffffffffffffffffffffffffffffffffffffffffffffffffffffff048311821515161561381f5761381e6139c0565b5b828202905092915050565b6000613835826138c8565b9150613840836138c8565b925082821015613853576138526139c0565b5b828203905092915050565b6000613869826138a8565b9050919050565b60008115159050919050565b60007fffffffff0000000000000000000000000000000000000000000000000000000082169050919050565b600073ffffffffffffffffffffffffffffffffffffffff82169050919050565b6000819050919050565b82818337600083830152505050565b60005b838110156138ff5780820151818401526020810190506138e4565b8381111561390e576000848401525b50505050565b6000600282049050600182168061392c57607f821691505b602082108114156139405761393f613a1e565b5b50919050565b6000613951826138c8565b91507fffffffffffffffffffffffffffffffffffffffffffffffffffffffffffffffff821415613984576139836139c0565b5b600182019050919050565b600061399a826138c8565b91506139a5836138c8565b9250826139b5576139b46139ef565b5b828206905092915050565b7f4e487b7100000000000000000000000000000000000000000000000000000000600052601160045260246000fd5b7f4e487b7100000000000000000000000000000000000000000000000000000000600052601260045260246000fd5b7f4e487b7100000000000000000000000000000000000000000000000000000000600052602260045260246000fd5b7f4e487b7100000000000000000000000000000000000000000000000000000000600052604160045260246000fd5b6000601f19601f8301169050919050565b613a968161385e565b8114613aa157600080fd5b50565b613aad81613870565b8114613ab857600080fd5b50565b613ac48161387c565b8114613acf57600080fd5b50565b613adb816138c8565b8114613ae657600080fd5b5056fe416e204e465420772f20494420257320686173206265656e206d696e74656420746f2025734142434445464748494a4b4c4d4e4f505152535455565758595a6162636465666768696a6b6c6d6e6f707172737475767778797a303132333435363738392b2fa26469706673582212205cd81abc63c7cbf2b75b00272b5d3dc2fcfcb4e9a9195be9cbe603fc0de2cb4264736f6c634300080000333c73766720786d6c6e733d27687474703a2f2f7777772e77332e6f72672f323030302f73766727207072657365727665417370656374526174696f3d27784d696e594d696e206d656574272076696577426f783d273020302033353020333530273e3c7374796c653e2e62617365207b2066696c6c3a2077686974653b20666f6e742d66616d696c793a2073657269663b20666f6e742d73697a653a20323470783b207d3c2f7374796c653e3c726563742077696474683d273130302527206865696768743d2731303025272066696c6c3d27626c61636b27202f3e3c7465787420783d273530252720793d273530252720636c6173733d27626173652720646f6d696e616e742d626173656c696e653d276d6964646c652720746578742d616e63686f723d276d6964646c65273e3c73766720786d6c6e733d27687474703a2f2f7777772e77332e6f72672f323030302f73766727207072657365727665417370656374526174696f3d27784d696e594d696e206d656574272076696577426f783d273020302033353020333530273e3c7374796c653e2e62617365207b2066696c6c3a2077686974653b20666f6e742d66616d696c793a2073657269663b20666f6e742d73697a653a20323470783b207d3c2f7374796c653e3c726563742077696474683d273130302527206865696768743d2731303025272066696c6c3d27272f3e3c7465787420783d273530252720793d273530252720636c6173733d27626173652720646f6d696e616e742d626173656c696e653d276d6964646c652720746578742d616e63686f723d276d6964646c65273e",
  "linkReferences": {},
  "deployedLinkReferences": {}
}